{
    "contractName": "iTicketing",
    "abi": [
        {
            "inputs": [
                {
                    "internalType": "string",
                    "name": "_uri",
                    "type": "string"
                },
                {
                    "internalType": "address",
                    "name": "_mintAdmin",
                    "type": "address"
                }
            ],
            "stateMutability": "nonpayable",
            "type": "constructor"
        },
        {
            "inputs": [],
            "name": "Address_Zero_Detected",
            "type": "error"
        },
        {
            "inputs": [],
            "name": "ID_Already_In_Use",
            "type": "error"
        },
        {
            "inputs": [],
            "name": "ID_Not_Found",
            "type": "error"
        },
        {
            "inputs": [],
            "name": "Invalid_Value",
            "type": "error"
        },
        {
            "inputs": [],
            "name": "Not_Controller",
            "type": "error"
        },
        {
            "anonymous": false,
            "inputs": [
                {
                    "indexed": true,
                    "internalType": "address",
                    "name": "account",
                    "type": "address"
                },
                {
                    "indexed": true,
                    "internalType": "address",
                    "name": "operator",
                    "type": "address"
                },
                {
                    "indexed": false,
                    "internalType": "bool",
                    "name": "approved",
                    "type": "bool"
                }
            ],
            "name": "ApprovalForAll",
            "type": "event"
        },
        {
            "anonymous": false,
            "inputs": [
                {
                    "indexed": false,
                    "internalType": "address",
                    "name": "eventAdmin",
                    "type": "address"
                },
                {
                    "indexed": false,
                    "internalType": "uint16",
                    "name": "eventId",
                    "type": "uint16"
                },
                {
                    "indexed": false,
                    "internalType": "uint256",
                    "name": "creationTime",
                    "type": "uint256"
                }
            ],
            "name": "ID_Created",
            "type": "event"
        },
        {
            "anonymous": false,
            "inputs": [
                {
                    "indexed": true,
                    "internalType": "bytes32",
                    "name": "role",
                    "type": "bytes32"
                },
                {
                    "indexed": true,
                    "internalType": "bytes32",
                    "name": "previousAdminRole",
                    "type": "bytes32"
                },
                {
                    "indexed": true,
                    "internalType": "bytes32",
                    "name": "newAdminRole",
                    "type": "bytes32"
                }
            ],
            "name": "RoleAdminChanged",
            "type": "event"
        },
        {
            "anonymous": false,
            "inputs": [
                {
                    "indexed": true,
                    "internalType": "bytes32",
                    "name": "role",
                    "type": "bytes32"
                },
                {
                    "indexed": true,
                    "internalType": "address",
                    "name": "account",
                    "type": "address"
                },
                {
                    "indexed": true,
                    "internalType": "address",
                    "name": "sender",
                    "type": "address"
                }
            ],
            "name": "RoleGranted",
            "type": "event"
        },
        {
            "anonymous": false,
            "inputs": [
                {
                    "indexed": true,
                    "internalType": "bytes32",
                    "name": "role",
                    "type": "bytes32"
                },
                {
                    "indexed": true,
                    "internalType": "address",
                    "name": "account",
                    "type": "address"
                },
                {
                    "indexed": true,
                    "internalType": "address",
                    "name": "sender",
                    "type": "address"
                }
            ],
            "name": "RoleRevoked",
            "type": "event"
        },
        {
            "anonymous": false,
            "inputs": [
                {
                    "indexed": true,
                    "internalType": "address",
                    "name": "operator",
                    "type": "address"
                },
                {
                    "indexed": true,
                    "internalType": "address",
                    "name": "from",
                    "type": "address"
                },
                {
                    "indexed": true,
                    "internalType": "address",
                    "name": "to",
                    "type": "address"
                },
                {
                    "indexed": false,
                    "internalType": "uint256[]",
                    "name": "ids",
                    "type": "uint256[]"
                },
                {
                    "indexed": false,
                    "internalType": "uint256[]",
                    "name": "values",
                    "type": "uint256[]"
                }
            ],
            "name": "TransferBatch",
            "type": "event"
        },
        {
            "anonymous": false,
            "inputs": [
                {
                    "indexed": true,
                    "internalType": "address",
                    "name": "operator",
                    "type": "address"
                },
                {
                    "indexed": true,
                    "internalType": "address",
                    "name": "from",
                    "type": "address"
                },
                {
                    "indexed": true,
                    "internalType": "address",
                    "name": "to",
                    "type": "address"
                },
                {
                    "indexed": false,
                    "internalType": "uint256",
                    "name": "id",
                    "type": "uint256"
                },
                {
                    "indexed": false,
                    "internalType": "uint256",
                    "name": "value",
                    "type": "uint256"
                }
            ],
            "name": "TransferSingle",
            "type": "event"
        },
        {
            "anonymous": false,
            "inputs": [
                {
                    "indexed": false,
                    "internalType": "string",
                    "name": "value",
                    "type": "string"
                },
                {
                    "indexed": true,
                    "internalType": "uint256",
                    "name": "id",
                    "type": "uint256"
                }
            ],
            "name": "URI",
            "type": "event"
        },
        {
            "inputs": [],
            "name": "Controller",
            "outputs": [
                {
                    "internalType": "address",
                    "name": "",
                    "type": "address"
                }
            ],
            "stateMutability": "view",
            "type": "function"
        },
        {
            "inputs": [],
            "name": "DEFAULT_ADMIN_ROLE",
            "outputs": [
                {
                    "internalType": "bytes32",
                    "name": "",
                    "type": "bytes32"
                }
            ],
            "stateMutability": "view",
            "type": "function"
        },
        {
            "inputs": [],
            "name": "MINTER_ROLE",
            "outputs": [
                {
                    "internalType": "bytes32",
                    "name": "",
                    "type": "bytes32"
                }
            ],
            "stateMutability": "view",
            "type": "function"
        },
        {
            "inputs": [
                {
                    "internalType": "uint256",
                    "name": "",
                    "type": "uint256"
                }
            ],
            "name": "attenders",
            "outputs": [
                {
                    "internalType": "address",
                    "name": "",
                    "type": "address"
                }
            ],
            "stateMutability": "view",
            "type": "function"
        },
        {
            "inputs": [
                {
                    "internalType": "address",
                    "name": "account",
                    "type": "address"
                },
                {
                    "internalType": "uint256",
                    "name": "id",
                    "type": "uint256"
                }
            ],
            "name": "balanceOf",
            "outputs": [
                {
                    "internalType": "uint256",
                    "name": "",
                    "type": "uint256"
                }
            ],
            "stateMutability": "view",
            "type": "function"
        },
        {
            "inputs": [
                {
                    "internalType": "address[]",
                    "name": "accounts",
                    "type": "address[]"
                },
                {
                    "internalType": "uint256[]",
                    "name": "ids",
                    "type": "uint256[]"
                }
            ],
            "name": "balanceOfBatch",
            "outputs": [
                {
                    "internalType": "uint256[]",
                    "name": "",
                    "type": "uint256[]"
                }
            ],
            "stateMutability": "view",
            "type": "function"
        },
        {
            "inputs": [],
            "name": "claimAttendanceToken",
            "outputs": [],
            "stateMutability": "nonpayable",
            "type": "function"
        },
        {
            "inputs": [
                {
                    "internalType": "uint16",
                    "name": "_id",
                    "type": "uint16"
                },
                {
                    "internalType": "uint256",
                    "name": "_startTime",
                    "type": "uint256"
                },
                {
                    "internalType": "uint256",
                    "name": "_endTime",
                    "type": "uint256"
                },
                {
                    "internalType": "string",
                    "name": "_eventUri",
                    "type": "string"
                },
                {
                    "internalType": "uint256",
                    "name": "_fee",
                    "type": "uint256"
                },
                {
                    "internalType": "uint64",
                    "name": "no_of_expected_participants",
                    "type": "uint64"
                }
            ],
            "name": "createEvent",
            "outputs": [
                {
                    "internalType": "bool",
                    "name": "",
                    "type": "bool"
                }
            ],
            "stateMutability": "nonpayable",
            "type": "function"
        },
        {
            "inputs": [
                {
                    "internalType": "uint16",
                    "name": "_id",
                    "type": "uint16"
                },
                {
                    "internalType": "address",
                    "name": "_eventAdmin",
                    "type": "address"
                }
            ],
            "name": "createID",
            "outputs": [],
            "stateMutability": "nonpayable",
            "type": "function"
        },
        {
            "inputs": [],
            "name": "createTicket",
            "outputs": [],
            "stateMutability": "nonpayable",
            "type": "function"
        },
        {
            "inputs": [],
            "name": "eventAdmin",
            "outputs": [
                {
                    "internalType": "address",
                    "name": "",
                    "type": "address"
                }
            ],
            "stateMutability": "view",
            "type": "function"
        },
        {
            "inputs": [],
            "name": "eventEndTime",
            "outputs": [
                {
                    "internalType": "uint256",
                    "name": "",
                    "type": "uint256"
                }
            ],
            "stateMutability": "view",
            "type": "function"
        },
        {
            "inputs": [],
            "name": "eventStartTime",
            "outputs": [
                {
                    "internalType": "uint256",
                    "name": "",
                    "type": "uint256"
                }
            ],
            "stateMutability": "view",
            "type": "function"
        },
        {
            "inputs": [
                {
                    "internalType": "bytes32",
                    "name": "role",
                    "type": "bytes32"
                }
            ],
            "name": "getRoleAdmin",
            "outputs": [
                {
                    "internalType": "bytes32",
                    "name": "",
                    "type": "bytes32"
                }
            ],
            "stateMutability": "view",
            "type": "function"
        },
        {
            "inputs": [
                {
                    "internalType": "bytes32",
                    "name": "role",
                    "type": "bytes32"
                },
                {
                    "internalType": "address",
                    "name": "account",
                    "type": "address"
                }
            ],
            "name": "grantRole",
            "outputs": [],
            "stateMutability": "nonpayable",
            "type": "function"
        },
        {
            "inputs": [
                {
                    "internalType": "bytes32",
                    "name": "role",
                    "type": "bytes32"
                },
                {
                    "internalType": "address",
                    "name": "account",
                    "type": "address"
                }
            ],
            "name": "hasRole",
            "outputs": [
                {
                    "internalType": "bool",
                    "name": "",
                    "type": "bool"
                }
            ],
            "stateMutability": "view",
            "type": "function"
        },
        {
            "inputs": [
                {
                    "internalType": "address",
                    "name": "account",
                    "type": "address"
                },
                {
                    "internalType": "address",
                    "name": "operator",
                    "type": "address"
                }
            ],
            "name": "isApprovedForAll",
            "outputs": [
                {
                    "internalType": "bool",
                    "name": "",
                    "type": "bool"
                }
            ],
            "stateMutability": "view",
            "type": "function"
        },
        {
            "inputs": [],
            "name": "register",
            "outputs": [],
            "stateMutability": "nonpayable",
            "type": "function"
        },
        {
            "inputs": [
                {
                    "internalType": "bytes32",
                    "name": "role",
                    "type": "bytes32"
                },
                {
                    "internalType": "address",
                    "name": "account",
                    "type": "address"
                }
            ],
            "name": "renounceRole",
            "outputs": [],
            "stateMutability": "nonpayable",
            "type": "function"
        },
        {
            "inputs": [
                {
                    "internalType": "bytes32",
                    "name": "role",
                    "type": "bytes32"
                },
                {
                    "internalType": "address",
                    "name": "account",
                    "type": "address"
                }
            ],
            "name": "revokeRole",
            "outputs": [],
            "stateMutability": "nonpayable",
            "type": "function"
        },
        {
            "inputs": [
                {
                    "internalType": "address",
                    "name": "from",
                    "type": "address"
                },
                {
                    "internalType": "address",
                    "name": "to",
                    "type": "address"
                },
                {
                    "internalType": "uint256[]",
                    "name": "ids",
                    "type": "uint256[]"
                },
                {
                    "internalType": "uint256[]",
                    "name": "amounts",
                    "type": "uint256[]"
                },
                {
                    "internalType": "bytes",
                    "name": "data",
                    "type": "bytes"
                }
            ],
            "name": "safeBatchTransferFrom",
            "outputs": [],
            "stateMutability": "nonpayable",
            "type": "function"
        },
        {
            "inputs": [
                {
                    "internalType": "address",
                    "name": "from",
                    "type": "address"
                },
                {
                    "internalType": "address",
                    "name": "to",
                    "type": "address"
                },
                {
                    "internalType": "uint256",
                    "name": "id",
                    "type": "uint256"
                },
                {
                    "internalType": "uint256",
                    "name": "amount",
                    "type": "uint256"
                },
                {
                    "internalType": "bytes",
                    "name": "data",
                    "type": "bytes"
                }
            ],
            "name": "safeTransferFrom",
            "outputs": [],
            "stateMutability": "nonpayable",
            "type": "function"
        },
        {
            "inputs": [
                {
                    "internalType": "address",
                    "name": "operator",
                    "type": "address"
                },
                {
                    "internalType": "bool",
                    "name": "approved",
                    "type": "bool"
                }
            ],
            "name": "setApprovalForAll",
            "outputs": [],
            "stateMutability": "nonpayable",
            "type": "function"
        },
        {
            "inputs": [],
            "name": "showEventDate",
            "outputs": [],
            "stateMutability": "nonpayable",
            "type": "function"
        },
        {
            "inputs": [
                {
                    "internalType": "bytes4",
                    "name": "interfaceId",
                    "type": "bytes4"
                }
            ],
            "name": "supportsInterface",
            "outputs": [
                {
                    "internalType": "bool",
                    "name": "",
                    "type": "bool"
                }
            ],
            "stateMutability": "view",
            "type": "function"
        },
        {
            "inputs": [],
            "name": "swap",
            "outputs": [],
            "stateMutability": "nonpayable",
            "type": "function"
        },
        {
            "inputs": [],
            "name": "totalAmountRaised",
            "outputs": [
                {
                    "internalType": "uint256",
                    "name": "",
                    "type": "uint256"
                }
            ],
            "stateMutability": "view",
            "type": "function"
        },
        {
            "inputs": [
                {
                    "internalType": "uint256",
                    "name": "",
                    "type": "uint256"
                }
            ],
            "name": "uri",
            "outputs": [
                {
                    "internalType": "string",
                    "name": "",
                    "type": "string"
                }
            ],
            "stateMutability": "view",
            "type": "function"
        }
    ],
    "bytecode": "60806040523480156200001157600080fd5b50604051620022c0380380620022c0833981016040819052620000349162000186565b81620000408162000094565b506200004e600033620000a6565b6200007a7f9f2df0fed2c77648de5860a4cc508cd0818c85b8b8a1ab4ceeef8d981c8956a682620000a6565b5050600780546001600160a01b03191633179055620003c9565b6002620000a28282620002fd565b5050565b60008281526003602090815260408083206001600160a01b0385168452909152902054620000a2908390839060ff16620000a25760008281526003602090815260408083206001600160a01b03851684529091529020805460ff191660011790556200010f3390565b6001600160a01b0316816001600160a01b0316837f2f8788117e7eff1d82e926ec794901d17c78024a50270940304540a733656f0d60405160405180910390a45050565b634e487b7160e01b600052604160045260246000fd5b80516001600160a01b03811681146200018157600080fd5b919050565b600080604083850312156200019a57600080fd5b82516001600160401b0380821115620001b257600080fd5b818501915085601f830112620001c757600080fd5b815181811115620001dc57620001dc62000153565b604051601f8201601f19908116603f0116810190838211818310171562000207576200020762000153565b816040528281526020935088848487010111156200022457600080fd5b600091505b8282101562000248578482018401518183018501529083019062000229565b60008484830101528096505050506200026381860162000169565b925050509250929050565b600181811c908216806200028357607f821691505b602082108103620002a457634e487b7160e01b600052602260045260246000fd5b50919050565b601f821115620002f857600081815260208120601f850160051c81016020861015620002d35750805b601f850160051c820191505b81811015620002f457828155600101620002df565b5050505b505050565b81516001600160401b0381111562000319576200031962000153565b62000331816200032a84546200026e565b84620002aa565b602080601f831160018114620003695760008415620003505750858301515b600019600386901b1c1916600185901b178555620002f4565b600085815260208120601f198616915b828110156200039a5788860151825594840194600190910190840162000379565b5085821015620003b95787850151600019600388901b60f8161c191681555b5050505050600190811b01905550565b611ee780620003d96000396000f3fe608060405234801561001057600080fd5b50600436106101c35760003560e01c80638119c065116100f9578063af3ae44011610097578063d547741f11610071578063d547741f1461038d578063d6bd5db1146103a0578063e985e9c5146103a9578063f242432a146103e557600080fd5b8063af3ae44014610340578063bfabcf1e14610353578063d53913931461036657600080fd5b80639df6f965116100d35780639df6f965146102ff578063a217fddf14610312578063a22cb4651461031a578063abeb18f31461032d57600080fd5b80638119c0651461023157806384e1a53b1461023157806391d14854146102ec57600080fd5b80632eb2c2d6116101665780634e1273f4116101405780634e1273f41461029857806356a924b91461023157806364679356146102b8578063740ea9a6146102e357600080fd5b80632eb2c2d61461025f5780632f2ff15d1461027257806336568abe1461028557600080fd5b80631aa3a008116101a25780631aa3a008146102315780631d27170914610231578063242d7dba14610233578063248a9ca31461023c57600080fd5b8062fdd58e146101c857806301ffc9a7146101ee5780630e89341c14610211575b600080fd5b6101db6101d63660046114be565b6103f8565b6040519081526020015b60405180910390f35b6102016101fc3660046114fe565b610491565b60405190151581526020016101e5565b61022461021f36600461151b565b61049c565b6040516101e59190611584565b005b6101db60065481565b6101db61024a36600461151b565b60009081526003602052604090206001015490565b61023161026d3660046116e3565b610530565b61023161028036600461178d565b61057c565b61023161029336600461178d565b6105a6565b6102ab6102a63660046117b9565b610624565b6040516101e591906118bf565b6007546102cb906001600160a01b031681565b6040516001600160a01b0390911681526020016101e5565b6101db60045481565b6102016102fa36600461178d565b61074e565b6008546102cb906001600160a01b031681565b6101db600081565b6102316103283660046118d2565b610779565b6102cb61033b36600461151b565b610784565b61023161034e366004611920565b6107ae565b610201610361366004611962565b6108ba565b6101db7f9f2df0fed2c77648de5860a4cc508cd0818c85b8b8a1ab4ceeef8d981c8956a681565b61023161039b36600461178d565b610a6a565b6101db60055481565b6102016103b7366004611a13565b6001600160a01b03918216600090815260016020908152604080832093909416825291909152205460ff1690565b6102316103f3366004611a2f565b610a8f565b60006001600160a01b0383166104685760405162461bcd60e51b815260206004820152602a60248201527f455243313135353a2061646472657373207a65726f206973206e6f742061207660448201526930b634b21037bbb732b960b11b60648201526084015b60405180910390fd5b506000818152602081815260408083206001600160a01b03861684529091529020545b92915050565b600061048b82610ad4565b6060600280546104ab90611a94565b80601f01602080910402602001604051908101604052809291908181526020018280546104d790611a94565b80156105245780601f106104f957610100808354040283529160200191610524565b820191906000526020600020905b81548152906001019060200180831161050757829003601f168201915b50505050509050919050565b6001600160a01b03851633148061054c575061054c85336103b7565b6105685760405162461bcd60e51b815260040161045f90611ace565b6105758585858585610af9565b5050505050565b60008281526003602052604090206001015461059781610cd6565b6105a18383610ce3565b505050565b6001600160a01b03811633146106165760405162461bcd60e51b815260206004820152602f60248201527f416363657373436f6e74726f6c3a2063616e206f6e6c792072656e6f756e636560448201526e103937b632b9903337b91039b2b63360891b606482015260840161045f565b6106208282610d69565b5050565b606081518351146106895760405162461bcd60e51b815260206004820152602960248201527f455243313135353a206163636f756e747320616e6420696473206c656e677468604482015268040dad2e6dac2e8c6d60bb1b606482015260840161045f565b6000835167ffffffffffffffff8111156106a5576106a5611597565b6040519080825280602002602001820160405280156106ce578160200160208202803683370190505b50905060005b8451811015610746576107198582815181106106f2576106f2611b1c565b602002602001015185838151811061070c5761070c611b1c565b60200260200101516103f8565b82828151811061072b5761072b611b1c565b602090810291909101015261073f81611b48565b90506106d4565b509392505050565b60009182526003602090815260408084206001600160a01b0393909316845291905290205460ff1690565b610620338383610dd0565b600c818154811061079457600080fd5b6000918252602090912001546001600160a01b0316905081565b6007546001600160a01b031633146107d957604051631e4a940d60e01b815260040160405180910390fd5b61ffff82166000908152600b602052604090205460ff16151560010361081257604051630721dea760e41b815260040160405180910390fd5b6001600160a01b0381166108395760405163a91830f960e01b815260040160405180910390fd5b600880546001600160a01b0319166001600160a01b03831690811790915561ffff83166000818152600b6020908152604091829020805460ff19166001179055815193845283019190915242908201527f94bb723a47eb808560ffb942dc9022d736c4dbc31d1bb22fd5760ea5f589849e9060600160405180910390a15050565b60006108e67f9f2df0fed2c77648de5860a4cc508cd0818c85b8b8a1ab4ceeef8d981c8956a63361074e565b15156001146109265760405162461bcd60e51b815260206004820152600c60248201526b155b985d5d1a1bdc9a5e995960a21b604482015260640161045f565b60408051602080820152600091810182905260600160408051601f19818403018152918152815160209283012061ffff8c166000908152600b90935291205490915060ff1661098857604051633d59916360e11b815260040160405180910390fd5b600088116109a957604051630ce1c95760e31b815260040160405180910390fd5b600087116109ca57604051630ce1c95760e31b815260040160405180910390fd5b600084116109eb57604051630ce1c95760e31b815260040160405180910390fd5b60008367ffffffffffffffff1611610a1657604051630ce1c95760e31b815260040160405180910390fd5b8585604051602001610a29929190611b61565b604051602081830303815290604052805190602001208103610a5e57604051630ce1c95760e31b815260040160405180910390fd5b50979650505050505050565b600082815260036020526040902060010154610a8581610cd6565b6105a18383610d69565b6001600160a01b038516331480610aab5750610aab85336103b7565b610ac75760405162461bcd60e51b815260040161045f90611ace565b6105758585858585610eb0565b60006001600160e01b03198216637965db0b60e01b148061048b575061048b82610fda565b8151835114610b5b5760405162461bcd60e51b815260206004820152602860248201527f455243313135353a2069647320616e6420616d6f756e7473206c656e677468206044820152670dad2e6dac2e8c6d60c31b606482015260840161045f565b6001600160a01b038416610b815760405162461bcd60e51b815260040161045f90611b90565b3360005b8451811015610c68576000858281518110610ba257610ba2611b1c565b602002602001015190506000858381518110610bc057610bc0611b1c565b602090810291909101810151600084815280835260408082206001600160a01b038e168352909352919091205490915081811015610c105760405162461bcd60e51b815260040161045f90611bd5565b6000838152602081815260408083206001600160a01b038e8116855292528083208585039055908b16825281208054849290610c4d908490611c1f565b9250508190555050505080610c6190611b48565b9050610b85565b50846001600160a01b0316866001600160a01b0316826001600160a01b03167f4a39dc06d4c0dbc64b70af90fd698a233a518aa5d07e595d983b8c0526c8f7fb8787604051610cb8929190611c32565b60405180910390a4610cce81878787878761102a565b505050505050565b610ce0813361118e565b50565b610ced828261074e565b6106205760008281526003602090815260408083206001600160a01b03851684529091529020805460ff19166001179055610d253390565b6001600160a01b0316816001600160a01b0316837f2f8788117e7eff1d82e926ec794901d17c78024a50270940304540a733656f0d60405160405180910390a45050565b610d73828261074e565b156106205760008281526003602090815260408083206001600160a01b0385168085529252808320805460ff1916905551339285917ff6391f5c32d9c69d2a47ea670b442974b53935d1edc7fd64eb21e047a839171b9190a45050565b816001600160a01b0316836001600160a01b031603610e435760405162461bcd60e51b815260206004820152602960248201527f455243313135353a2073657474696e6720617070726f76616c20737461747573604482015268103337b91039b2b63360b91b606482015260840161045f565b6001600160a01b03838116600081815260016020908152604080832094871680845294825291829020805460ff191686151590811790915591519182527f17307eab39ab6107e8899845ad3d59bd9653f200f220920489ca2b5937696c31910160405180910390a3505050565b6001600160a01b038416610ed65760405162461bcd60e51b815260040161045f90611b90565b336000610ee2856111e7565b90506000610eef856111e7565b90506000868152602081815260408083206001600160a01b038c16845290915290205485811015610f325760405162461bcd60e51b815260040161045f90611bd5565b6000878152602081815260408083206001600160a01b038d8116855292528083208985039055908a16825281208054889290610f6f908490611c1f565b909155505060408051888152602081018890526001600160a01b03808b16928c821692918816917fc3d58168c5ae7397731d063d5bbf3d657854427343f4c083240f7aacaa2d0f62910160405180910390a4610fcf848a8a8a8a8a611232565b505050505050505050565b60006001600160e01b03198216636cdb3d1360e11b148061100b57506001600160e01b031982166303a24d0760e21b145b8061048b57506301ffc9a760e01b6001600160e01b031983161461048b565b6001600160a01b0384163b15610cce5760405163bc197c8160e01b81526001600160a01b0385169063bc197c819061106e9089908990889088908890600401611c60565b6020604051808303816000875af19250505080156110a9575060408051601f3d908101601f191682019092526110a691810190611cbe565b60015b611155576110b5611cdb565b806308c379a0036110ee57506110c9611cf7565b806110d457506110f0565b8060405162461bcd60e51b815260040161045f9190611584565b505b60405162461bcd60e51b815260206004820152603460248201527f455243313135353a207472616e7366657220746f206e6f6e2d455243313135356044820152732932b1b2b4bb32b91034b6b83632b6b2b73a32b960611b606482015260840161045f565b6001600160e01b0319811663bc197c8160e01b146111855760405162461bcd60e51b815260040161045f90611d81565b50505050505050565b611198828261074e565b610620576111a5816112ed565b6111b08360206112ff565b6040516020016111c1929190611dc9565b60408051601f198184030181529082905262461bcd60e51b825261045f91600401611584565b6040805160018082528183019092526060916000919060208083019080368337019050509050828160008151811061122157611221611b1c565b602090810291909101015292915050565b6001600160a01b0384163b15610cce5760405163f23a6e6160e01b81526001600160a01b0385169063f23a6e61906112769089908990889088908890600401611e3e565b6020604051808303816000875af19250505080156112b1575060408051601f3d908101601f191682019092526112ae91810190611cbe565b60015b6112bd576110b5611cdb565b6001600160e01b0319811663f23a6e6160e01b146111855760405162461bcd60e51b815260040161045f90611d81565b606061048b6001600160a01b03831660145b6060600061130e836002611e83565b611319906002611c1f565b67ffffffffffffffff81111561133157611331611597565b6040519080825280601f01601f19166020018201604052801561135b576020820181803683370190505b509050600360fc1b8160008151811061137657611376611b1c565b60200101906001600160f81b031916908160001a905350600f60fb1b816001815181106113a5576113a5611b1c565b60200101906001600160f81b031916908160001a90535060006113c9846002611e83565b6113d4906001611c1f565b90505b600181111561144c576f181899199a1a9b1b9c1cb0b131b232b360811b85600f166010811061140857611408611b1c565b1a60f81b82828151811061141e5761141e611b1c565b60200101906001600160f81b031916908160001a90535060049490941c9361144581611e9a565b90506113d7565b50831561149b5760405162461bcd60e51b815260206004820181905260248201527f537472696e67733a20686578206c656e67746820696e73756666696369656e74604482015260640161045f565b9392505050565b80356001600160a01b03811681146114b957600080fd5b919050565b600080604083850312156114d157600080fd5b6114da836114a2565b946020939093013593505050565b6001600160e01b031981168114610ce057600080fd5b60006020828403121561151057600080fd5b813561149b816114e8565b60006020828403121561152d57600080fd5b5035919050565b60005b8381101561154f578181015183820152602001611537565b50506000910152565b60008151808452611570816020860160208601611534565b601f01601f19169290920160200192915050565b60208152600061149b6020830184611558565b634e487b7160e01b600052604160045260246000fd5b601f8201601f1916810167ffffffffffffffff811182821017156115d3576115d3611597565b6040525050565b600067ffffffffffffffff8211156115f4576115f4611597565b5060051b60200190565b600082601f83011261160f57600080fd5b8135602061161c826115da565b60405161162982826115ad565b83815260059390931b850182019282810191508684111561164957600080fd5b8286015b84811015611664578035835291830191830161164d565b509695505050505050565b600082601f83011261168057600080fd5b813567ffffffffffffffff81111561169a5761169a611597565b6040516116b1601f8301601f1916602001826115ad565b8181528460208386010111156116c657600080fd5b816020850160208301376000918101602001919091529392505050565b600080600080600060a086880312156116fb57600080fd5b611704866114a2565b9450611712602087016114a2565b9350604086013567ffffffffffffffff8082111561172f57600080fd5b61173b89838a016115fe565b9450606088013591508082111561175157600080fd5b61175d89838a016115fe565b9350608088013591508082111561177357600080fd5b506117808882890161166f565b9150509295509295909350565b600080604083850312156117a057600080fd5b823591506117b0602084016114a2565b90509250929050565b600080604083850312156117cc57600080fd5b823567ffffffffffffffff808211156117e457600080fd5b818501915085601f8301126117f857600080fd5b81356020611805826115da565b60405161181282826115ad565b83815260059390931b850182019282810191508984111561183257600080fd5b948201945b8386101561185757611848866114a2565b82529482019490820190611837565b9650508601359250508082111561186d57600080fd5b5061187a858286016115fe565b9150509250929050565b600081518084526020808501945080840160005b838110156118b457815187529582019590820190600101611898565b509495945050505050565b60208152600061149b6020830184611884565b600080604083850312156118e557600080fd5b6118ee836114a2565b91506020830135801515811461190357600080fd5b809150509250929050565b803561ffff811681146114b957600080fd5b6000806040838503121561193357600080fd5b61193c8361190e565b91506117b0602084016114a2565b803567ffffffffffffffff811681146114b957600080fd5b600080600080600080600060c0888a03121561197d57600080fd5b6119868861190e565b96506020880135955060408801359450606088013567ffffffffffffffff808211156119b157600080fd5b818a0191508a601f8301126119c557600080fd5b8135818111156119d457600080fd5b8b60208285010111156119e657600080fd5b60208301965080955050505060808801359150611a0560a0890161194a565b905092959891949750929550565b60008060408385031215611a2657600080fd5b61193c836114a2565b600080600080600060a08688031215611a4757600080fd5b611a50866114a2565b9450611a5e602087016114a2565b93506040860135925060608601359150608086013567ffffffffffffffff811115611a8857600080fd5b6117808882890161166f565b600181811c90821680611aa857607f821691505b602082108103611ac857634e487b7160e01b600052602260045260246000fd5b50919050565b6020808252602e908201527f455243313135353a2063616c6c6572206973206e6f7420746f6b656e206f776e60408201526d195c881bdc88185c1c1c9bdd995960921b606082015260800190565b634e487b7160e01b600052603260045260246000fd5b634e487b7160e01b600052601160045260246000fd5b600060018201611b5a57611b5a611b32565b5060010190565b60208152816020820152818360408301376000818301604090810191909152601f909201601f19160101919050565b60208082526025908201527f455243313135353a207472616e7366657220746f20746865207a65726f206164604082015264647265737360d81b606082015260800190565b6020808252602a908201527f455243313135353a20696e73756666696369656e742062616c616e636520666f60408201526939103a3930b739b332b960b11b606082015260800190565b8082018082111561048b5761048b611b32565b604081526000611c456040830185611884565b8281036020840152611c578185611884565b95945050505050565b6001600160a01b0386811682528516602082015260a060408201819052600090611c8c90830186611884565b8281036060840152611c9e8186611884565b90508281036080840152611cb28185611558565b98975050505050505050565b600060208284031215611cd057600080fd5b815161149b816114e8565b600060033d1115611cf45760046000803e5060005160e01c5b90565b600060443d1015611d055790565b6040516003193d81016004833e81513d67ffffffffffffffff8160248401118184111715611d3557505050505090565b8285019150815181811115611d4d5750505050505090565b843d8701016020828501011115611d675750505050505090565b611d76602082860101876115ad565b509095945050505050565b60208082526028908201527f455243313135353a204552433131353552656365697665722072656a656374656040820152676420746f6b656e7360c01b606082015260800190565b7f416363657373436f6e74726f6c3a206163636f756e7420000000000000000000815260008351611e01816017850160208801611534565b7001034b99036b4b9b9b4b733903937b6329607d1b6017918401918201528351611e32816028840160208801611534565b01602801949350505050565b6001600160a01b03868116825285166020820152604081018490526060810183905260a060808201819052600090611e7890830184611558565b979650505050505050565b808202811582820484141761048b5761048b611b32565b600081611ea957611ea9611b32565b50600019019056fea26469706673582212206ef41ec2e5876384bcfe6e9425df086c887f104d32ef2aa3b06b9e9a3261a8a064736f6c63430008130033",
    "sourcePath": "/home/evanseth/xE/iTicketing/src/ticket.sol",
    "compiler": {
        "name": "solc",
        "version": "0.8.19+commit.7dd6d404"
    },
    "functionHashes": {
        "Controller()": "64679356",
        "DEFAULT_ADMIN_ROLE()": "a217fddf",
        "MINTER_ROLE()": "d5391393",
        "attenders(uint256)": "abeb18f3",
        "balanceOf(address,uint256)": "00fdd58e",
        "balanceOfBatch(address[],uint256[])": "4e1273f4",
        "claimAttendanceToken()": "84e1a53b",
        "createEvent(uint16,uint256,uint256,string,uint256,uint64)": "bfabcf1e",
        "createID(uint16,address)": "af3ae440",
        "createTicket()": "1d271709",
        "eventAdmin()": "9df6f965",
        "eventEndTime()": "d6bd5db1",
        "eventStartTime()": "740ea9a6",
        "getRoleAdmin(bytes32)": "248a9ca3",
        "grantRole(bytes32,address)": "2f2ff15d",
        "hasRole(bytes32,address)": "91d14854",
        "isApprovedForAll(address,address)": "e985e9c5",
        "register()": "1aa3a008",
        "renounceRole(bytes32,address)": "36568abe",
        "revokeRole(bytes32,address)": "d547741f",
        "safeBatchTransferFrom(address,address,uint256[],uint256[],bytes)": "2eb2c2d6",
        "safeTransferFrom(address,address,uint256,uint256,bytes)": "f242432a",
        "setApprovalForAll(address,bool)": "a22cb465",
        "showEventDate()": "56a924b9",
        "supportsInterface(bytes4)": "01ffc9a7",
        "swap()": "8119c065",
        "totalAmountRaised()": "242d7dba",
        "uri(uint256)": "0e89341c"
    },
    "gasEstimates": {
        "creation": {
            "codeDepositCost": "1582200",
            "executionCost": "infinite",
            "totalCost": "infinite"
        },
        "external": {
            "Controller()": "2426",
            "DEFAULT_ADMIN_ROLE()": "251",
            "MINTER_ROLE()": "273",
            "attenders(uint256)": "4725",
            "balanceOf(address,uint256)": "2723",
            "balanceOfBatch(address[],uint256[])": "infinite",
            "claimAttendanceToken()": "188",
            "createEvent(uint16,uint256,uint256,string,uint256,uint64)": "infinite",
            "createID(uint16,address)": "infinite",
            "createTicket()": "188",
            "eventAdmin()": "2382",
            "eventEndTime()": "2350",
            "eventStartTime()": "2395",
            "getRoleAdmin(bytes32)": "2545",
            "grantRole(bytes32,address)": "infinite",
            "hasRole(bytes32,address)": "2755",
            "isApprovedForAll(address,address)": "infinite",
            "register()": "166",
            "renounceRole(bytes32,address)": "29091",
            "revokeRole(bytes32,address)": "infinite",
            "safeBatchTransferFrom(address,address,uint256[],uint256[],bytes)": "infinite",
            "safeTransferFrom(address,address,uint256,uint256,bytes)": "infinite",
            "setApprovalForAll(address,bool)": "26772",
            "showEventDate()": "187",
            "supportsInterface(bytes4)": "infinite",
            "swap()": "166",
            "totalAmountRaised()": "2374",
            "uri(uint256)": "infinite"
        },
        "internal": {
            "calculateSwapRate()": "infinite"
        }
    }
}